:100000000C9434000C9446000C9446000C9446006A
:100010000C9446000C9446000C945C000C94460032
:100020000C9446000C9446000C9448000C94460036
:100030000C9446000C9446000C9446000C94460028
:100040000C9446000C9446000C9446000C94460018
:100050000C9446000C9446000C9446000C94460008
:100060000C9446000C94460011241FBECFEFD8E03C
:10007000DEBFCDBF11E0A0E0B1E001C01D92A23013
:10008000B107E1F70E940F020C943C030C940000AE
:100090001F920F920FB60F9211248F939F9380E9B6
:1000A00090E090930101809300019F918F910F90B8
:1000B0000FBE0F901F9018951F920F920FB60F92C0
:1000C00011248F939F9380EC90E090930101809393
:1000D00000019F918F910F900FBE0F901F90189568
:1000E000FC018285813081F030F08230B9F480915A
:1000F0007C008E7F0CC080917C00816080937C00AE
:1001000080918100806408C080917C008160809330
:100110007C00809181008F7B80938100B59A089547
:10012000FC0182858130D9F090F0823031F58091E8
:100130008600909187009583848322813381821B7E
:10014000930B9783868312861386A89516C0809199
:100150008600909187009183808381E00DC080911B
:100160008600909187009383828320813181821B56
:10017000930B9187808782E08287CF010C94700077
:1001800021E0FC01238712860C947000882319F06B
:1001900085B1806202C085B18F7D85B908958823BD
:1001A00019F085B1816002C085B18E7F85B908954F
:1001B000882311F05B9A08955B980895882311F0C5
:1001C0005C9A08955C9808954F925F926F927F9227
:1001D0008F929F92AF92BF92CF92DF92EF92FF9257
:1001E0000F931F93CF93DF93FC018B017A018385DB
:1001F000813009F46AC0668577856417750720F435
:10020000F801C484D58463C0C485D585F801A2846F
:10021000B3844C175D0710F4650159C06C1B7D0B4E
:10022000CB01A0E0B0E0BC01CD0127E0660F771F55
:10023000881F991F2A95D1F7F801248535852A1939
:100240003B09442737FD4095542F0E94E7022901BE
:100250003A01C701A0E0B0E0BC01CD01E7E0660FC4
:10026000771F881F991FEA95D1F70E94E70269015D
:100270007A01CE01A0E0B0E0BC01CD01F7E0660F4D
:10028000771F881F991FFA95D1F7A30192010E9449
:10029000E702C501AA2797FDA095BA2F49015A0187
:1002A000881A990AAA0ABB0AC818D9089601D7FE63
:1002B00004C0222733272C193D09F8018685992788
:1002C00087FD90958217930714F0C12CD12CC6019D
:1002D000DF91CF911F910F91FF90EF90DF90CF9022
:1002E000BF90AF909F908F907F906F905F904F9056
:1002F00008950F931F93CF93DF93FC01C081D181A9
:1003000002811381C8019695982F88279795879524
:100310006FEF70E00E94D302C69F9001C79F300D1F
:10032000D69F300D112437FF02C021583F4FC9011D
:1003300080786FEF70E00E94D30284819581689F7E
:100340009001699F300D789F300D112437FF02C056
:1003500021583F4F220F232F221F330BC8016FEF6D
:1003600070E00E94D302CE01821B930B893F91055E
:100370001CF089EF90E00DC088304FEF94071CF41B
:1003800087E09FEF06C0209721F488279927861BD6
:10039000970B91878087CE01820F931F893F91052C
:1003A0001CF089EF90E00CC088302FEF92071CF40E
:1003B00087E09FEF05C0CD2B19F47783668302C0D9
:1003C00097838683DF91CF911F910F910895CF93EB
:1003D000DF93EC018885998597FD02C05B9A03C085
:1003E00080E00E94D800888587BD8E819F8197FD1F
:1003F00002C05C9A03C080E00E94DE008E8188BD4E
:1004000088859985892B21F48E819F81892B11F014
:1004100081E001C080E0DF91CF910C94CF00CF93B9
:10042000DF93CDB7DEB76F970FB6F894DEBF0FBE80
:10043000CDBF8E010F5F1F4F80E1F80111928A95A9
:10044000E9F781E08C878AE79AE39E878D878AE8BF
:100450009BE6988B8F877E01F1E1EF0EF11C8FE018
:10046000F70111928A95E9F781E09FEF9C8F8B8FBE
:100470008FEF90E09E8F8D8F8AE08F8FF894809120
:100480007A008F7780937A0080917B0080648093DC
:100490007B0080917E00836080937E0080B78064C3
:1004A00080BF80B7846080BF80B7826080BF80914A
:1004B0006F00806280936F008091810080688093DC
:1004C00081008091810081608093810080917C0017
:1004D000887F80937C00259A209A8AB180668AB9A9
:1004E0008AB188618AB980916000886180936000D8
:1004F00084E480936000789484B5816084BD84B581
:10050000806884BD84B5806284BD84B5806484BD08
:1005100084B5806184BD85B5826085BD83B7817FE8
:1005200083BF80E00E94C600C8010E94700084E67C
:10053000C82ED12CC7010E94E70183B7816083BF19
:10054000889583B78E7F83BFE0910001F091010110
:10055000309731F0C8010995109201011092000105
:100560004F815885B701C8010E94E4009C8B8B8B9A
:1005700049855A85B701C8010E94E4009A8B898B8E
:10058000DE8ACD8AC7010E947901898D9A8D892BD7
:1005900021F48F89988D892B11F080E001C081E0D2
:1005A0000E94C600C7CF97FB072E16F4009407D011
:1005B00077FD09D00E94060307FC05D03EF4909514
:1005C00081959F4F0895709561957F4F0895052EF1
:1005D00097FB1EF400940E94FE0257FD07D00E9474
:1005E0001A0307FC03D04EF40C94FE02509540957C
:1005F000309521953F4F4F4F5F4F089590958095CF
:10060000709561957F4F8F4F9F4F0895AA1BBB1B1D
:1006100051E107C0AA1FBB1FA617B70710F0A61B02
:10062000B70B881F991F5A95A9F780959095BC0123
:10063000CD010895A1E21A2EAA1BBB1BFD010DC01E
:10064000AA1FBB1FEE1FFF1FA217B307E407F50782
:1006500020F0A21BB30BE40BF50B661F771F881F5E
:10066000991F1A9469F760957095809590959B01F4
:0C067000AC01BD01CF010895F894FFCF4C
:00000001FF
