:100000000C9434000C9446000C9446000C9446006A
:100010000C9446000C9446000C9466000C94460028
:100020000C9446000C9446000C9452000C9446002C
:100030000C9446000C9446000C9446000C94460028
:100040000C9446000C9446000C9446000C94460018
:100050000C9446000C9446000C9446000C94460008
:100060000C9446000C94460011241FBECFEFD8E03C
:10007000DEBFCDBF11E0A0E0B1E001C01D92A23013
:10008000B107E1F70E942D020C9454030C94000078
:100090005B9A84B5806484BD08955C9A84B5806160
:1000A00084BD08951F920F920FB60F9211248F9363
:1000B0009F938AE990E090930101809300019F91C2
:1000C0008F910F900FBE0F901F9018951F920F9257
:1000D0000FB60F9211248F939F938AEC90E0909328
:1000E0000101809300019F918F910F900FBE0F909F
:1000F0001F901895FC018285813081F030F08230AC
:10010000B9F480917C008E7F0CC080917C0081606E
:1001100080937C0080918100806408C080917C0085
:10012000816080937C00809181008F7B809381002F
:10013000B59A0895FC0182858130D9F090F0823023
:1001400031F5809186009091870095838483228188
:100150003381821B930B9783868312861386A8951F
:1001600016C080918600909187009183808381E002
:100170000DC08091860090918700938382832081B7
:100180003181821B930B9187808782E08287CF0128
:100190000C947A0021E0FC01238712860C947A00EB
:1001A000882319F085B1806202C085B18F7D85B941
:1001B0000895882319F085B1816002C085B18E7FD2
:1001C00085B9089581110C9448005B9884B58F7BA4
:1001D00084BD089581110C944D005C9884B58F7E88
:1001E00084BD08954F925F926F927F928F929F92FB
:1001F000AF92BF92CF92DF92EF92FF920F931F9335
:10020000CF93DF93FC018B017A018385813009F460
:100210006AC0668577856417750720F4F801C48481
:10022000D58463C0C485D585F801A284B3844C17F6
:100230005D0710F4650159C06C1B7D0BCB01A0E07C
:10024000B0E0BC01CD0127E0660F771F881F991F22
:100250002A95D1F7F801248535852A193B094427C9
:1002600037FD4095542F0E94FF0229013A01C70132
:10027000A0E0B0E0BC01CD01E7E0660F771F881F6A
:10028000991FEA95D1F70E94FF0269017A01CE0118
:10029000A0E0B0E0BC01CD01F7E0660F771F881F3A
:1002A000991FFA95D1F7A30192010E94FF02C5019F
:1002B000AA2797FDA095BA2F49015A01881A990AD1
:1002C000AA0ABB0AC818D9089601D7FE04C022277B
:1002D00033272C193D09F8018685992787FD9095CC
:1002E0008217930714F0C12CD12CC601DF91CF9156
:1002F0001F910F91FF90EF90DF90CF90BF90AF9044
:100300009F908F907F906F905F904F900895EF92A5
:10031000FF920F931F93CF93DF93FC01C081D18194
:10032000828193819695982F8827979587956FEF6F
:1003300070E00E94EB028B01E480F580C69FC00153
:10034000C79F900DD69F900D112497FF02C0815832
:100350009F4F80786FEF70E00E94EB02E69E900165
:10036000E79E300DF69E300D112437FF02C0215854
:100370003F4F220F232F221F330BE09EC001E19E2F
:10038000900DF09E900D112497FF02C081589F4F51
:10039000880F892F881F990BAE01421B530B493FD1
:1003A00051051CF049EF50E00DC048306FEF560783
:1003B0001CF447E05FEF06C0209721F4442755273F
:1003C000481B590B518740872C0F3D1F293F310592
:1003D0001CF089EF90E009C028304FEF34071CF47F
:1003E00087E09FEF02C0CD2B19F49783868302C06C
:1003F00037832683DF91CF911F910F91FF90EF906C
:100400000895CF93DF93EC012885398537FD04C02B
:1004100027BD0E94480005C0219527BD80E00E94AD
:10042000E2002E813F8137FD04C028BD0E944D00AF
:1004300005C0219528BD80E00E94EA008885998545
:10044000892B21F48E819F81892B11F081E001C0DD
:1004500080E0DF91CF910C94D900CF93DF93CDB79B
:10046000DEB76F970FB6F894DEBF0FBECDBF8E011B
:100470000F5F1F4F80E1F80111928A95E9F781E043
:100480008C878AE79AE39E878D878AE89BE6988B1C
:100490008F877E01F1E1EF0EF11C8FE0F7011192E1
:1004A0008A95E9F781E09FEF9C8F8B8F8FEF90E02B
:1004B0009E8F8D8F8AE08F8FF89480917A008F774E
:1004C00080937A0080917B00806480937B00809190
:1004D0007E00836080937E0080B7806480BF80B799
:1004E000846080BF80B7826080BF80916F0080622F
:1004F00080936F008091810080688093810080915B
:10050000810081608093810080917C00887F80934E
:100510007C00259A209A8AB180668AB98AB188615E
:100520008AB98091600088618093600084E4809340
:100530006000789484B5816084BD84B5806884BD92
:1005400085B5826085BD84B5806284BD83B7817FB7
:1005500083BF80E00E94D000C8010E947A0084E638
:10056000C82ED12CC7010E94010283B7816083BFCE
:10057000889583B78E7F83BFE0910001F0910101E0
:10058000309731F0C80109951092010110920001D5
:100590004F815885B701C8010E94F2009C8B8B8B5C
:1005A00049855A85B701C8010E94F2009A8B898B50
:1005B000DE8ACD8AC7010E948701898D9A8D892B99
:1005C00021F48F89988D892B11F080E001C081E0A2
:1005D0000E94D000C7CF97FB072E16F4009407D0D7
:1005E00077FD09D00E941E0307FC05D03EF49095CC
:1005F00081959F4F0895709561957F4F0895052EC1
:1006000097FB1EF400940E94160357FD07D00E942A
:10061000320307FC03D04EF40C941603509540951A
:10062000309521953F4F4F4F5F4F0895909580959E
:10063000709561957F4F8F4F9F4F0895AA1BBB1BED
:1006400051E107C0AA1FBB1FA617B70710F0A61BD2
:10065000B70B881F991F5A95A9F780959095BC01F3
:10066000CD010895A1E21A2EAA1BBB1BFD010DC0EE
:10067000AA1FBB1FEE1FFF1FA217B307E407F50752
:1006800020F0A21BB30BE40BF50B661F771F881F2E
:10069000991F1A9469F760957095809590959B01C4
:0C06A000AC01BD01CF010895F894FFCF1C
:00000001FF
