:100000000C9434000C9446000C9448000C94460068
:100010000C9446000C9446000C9446000C94460048
:100020000C9446000C9446000C9452000C9446002C
:100030000C9446000C9446000C9446000C94460028
:100040000C9446000C9446000C9446000C94460018
:100050000C9446000C9446000C9446000C94460008
:100060000C9446000C94460011241FBECFEFD8E03C
:10007000DEBFCDBF11E0A0E0B1E001C01D92A13014
:10008000B107E1F70E9465000C94C5000C940000D4
:100090001F920F920FB60F9211240F900FBE0F9068
:1000A0001F9018951F920F920FB60F9211240F9068
:1000B0000FBE0F901F901895882319F085B18062AC
:1000C00002C085B18F7D85B9089580917B008064E1
:1000D00080937B0080917A008F7780937A00809163
:1000E0007E00836080937E0080B7806480BF80B78D
:1000F000846080BF80916F00806280936F008091E8
:10010000810080688093810080918100816080936C
:100110008100809164008E7F80936400259A5398BB
:100120005B9A80916900846080936900E99A789471
:1001300083B7817F83BF80E00E945C0080917C0058
:10014000887F80937C0083B7816083BF889583B765
:100150008E7F83BF80910001882339F080E00E9468
:100160005C00809181008F7B06C081E00E945C0072
:100170008091810080648093810081E090910001F2
:0E018000911180E080930001DECFF894FFCF54
:00000001FF
