:100000000C9434000C9451000C9453000C94510047
:100010000C9451000C9451000C9451000C9451001C
:100020000C9451000C9451000C945D000C94510000
:100030000C9451000C9451000C9451000C945100FC
:100040000C9451000C9451000C9451000C945100EC
:100050000C9451000C9451000C9451000C945100DC
:100060000C9451000C94510011241FBECFEFD8E026
:10007000DEBFCDBF11E0A0E0B1E0E4E8F5E002C0F2
:1000800005900D92AA30B107D9F711E0AAE0B1E0CE
:1000900001C01D92AC30B107E1F70E94B8010C9489
:1000A000C0020C9400001F920F920FB60F92112401
:1000B0000F900FBE0F901F9018951F920F920FB6C2
:1000C0000F9211248F939F9381E990E090930B01FD
:1000D00080930A019F918F910F900FBE0F901F90F8
:1000E0001895FC018285813081F030F08230B9F4BE
:1000F00080917C008E7F0CC080917C008160809319
:100100007C0080918100806408C080917C008160C7
:1001100080937C00809181008F7B80938100B59AD1
:100120000895FC0182858130C9F080F0823021F58C
:10013000809186009091870095838483228133810A
:10014000821B930B97838683128616C0809186004C
:10015000909187009183808381E00DC0809186001B
:10016000909187009383828320813181821B930B3E
:100170009187808782E08287CF010C947100882369
:1001800019F085B1806202C085B18F7D85B908956F
:100190004F925F926F927F928F929F92AF92BF9297
:1001A000EF92FF920F931F93CF93DF93FC018B018C
:1001B000628173816017710718F48681978158C036
:1001C000C081D181E480F5800C171D0710F4C701B0
:1001D0004FC06C1B7D0BCB01AA2797FDA095BA2FB2
:1001E000BC01CD0127E0660F771F881F991F2A9554
:1001F000D1F7268137812E193F09442737FD4095D5
:10020000542F0E946B0249015A01C801A0E0B0E0DE
:10021000BC01CD01E7E0660F771F881F991FEA95A3
:10022000D1F70E946B0229013A01CE01AA2797FD5E
:10023000A095BA2FBC01CD01F7E0660F771F881F8C
:10024000991FFA95D1F7A50194010E946B02C7018D
:10025000AA2797FDA095BA2F79018A01E81AF90A11
:100260000A0B1B0BD801C7018201081B190BC8011F
:10027000DF91CF911F910F91FF90EF90BF90AF90C2
:100280009F908F907F906F905F904F900895CF9345
:10029000DF93FC01C081D181828193819695982F53
:1002A0008827979587956FEF70E00E945702C69F49
:1002B000C001C79F900DD69F900D112497FF02C0DB
:1002C00081589F4F80786FEF70E00E9457028481C1
:1002D0009581689F9001699F300D789F300D1124A2
:1002E00037FF02C021583F4F220F232F221F330B0D
:1002F000CE01821B930B893F91051CF089EF90E0A2
:1003000006C088304FEF940714F487E09FEF918781
:1003100080872C0F3D1F293F31051CF089EF90E0AD
:1003200006C028308FEF38072CF487E09FEF9783C3
:10033000868302C037832683DF91CF910895FC0125
:1003400020853185121613061CF427BD5B9A03C065
:10035000219527BD5B98FC018681978118161906A7
:100360001CF488BD5C9A0895819588BD5C980895B9
:10037000CF93DF93CDB7DEB76E970FB6F894DEBF9D
:100380000FBECDBF8E010F5F1F4F8BE0F8011192A2
:100390008A95E9F789E0E0E0F1E0DE015696019008
:1003A0000D928A95E1F780917A008F7780937A0099
:1003B00080917B00806480937B0080917E008360CD
:1003C00080937E0080B7806480BF80B7846080BFE8
:1003D00080B7826080BF80916F00806280936F00E1
:1003E000809181008068809381008091810081608C
:1003F0008093810080917C00887F80937C00259A87
:100400008AB180668AB98AB188618AB9789484B5DC
:10041000816084BD84B5806884BD84B5806284BDFC
:1004200085B5826085BD83B7817F83BF80E00E94F0
:10043000BF00C8010E94710084E6E82EF12CCE01B5
:100440000C960E949F0183B7816083BF889583B714
:100450008E7F83BFE0910A01F0910B01309731F05C
:10046000C801099510920B0110920A016F817885DD
:10047000CE0146960E94C8009F878E8769857A853F
:10048000CE0146960E94C8009D878C87F98AE88A2B
:10049000CE010C960E9447018C899D898F3791056A
:1004A00014F081E001C080E00E94BF00C8CF97FB3C
:1004B000072E16F4009407D077FD09D00E948A0217
:1004C00007FC05D03EF4909581959F4F0895709557
:1004D00061957F4F0895052E97FB1EF400940E94AE
:1004E000820257FD07D00E949E0207FC03D04EF403
:1004F0000C94820250954095309521953F4F4F4F77
:100500005F4F089590958095709561957F4F8F4FBF
:100510009F4F0895AA1BBB1B51E107C0AA1FBB1F19
:10052000A617B70710F0A61BB70B881F991F5A957F
:10053000A9F780959095BC01CD010895A1E21A2EEE
:10054000AA1BBB1BFD010DC0AA1FBB1FEE1FFF1F77
:10055000A217B307E407F50720F0A21BB30BE40BC7
:10056000F50B661F771F881F991F1A9469F760950E
:100570007095809590959B01AC01BD01CF010895C8
:04058000F894FFCF1D
:0A0584007A3A8A6B01FFFF000500C0
:00000001FF
