:100000000C9434000C943E000C9440000C943E0080
:100010000C943E000C943E000C943E000C943E0068
:100020000C943E000C943E000C944A000C943E004C
:100030000C943E000C943E000C943E000C943E0048
:100040000C943E000C943E000C943E000C943E0038
:100050000C943E000C943E000C943E000C943E0028
:100060000C943E000C943E0011241FBECFEFD8E04C
:10007000DEBFCDBF0E945D000C94AC000C9400006C
:100080001F920F920FB60F9211240F900FBE0F9078
:100090001F9018951F920F920FB60F9211240F9078
:1000A0000FBE0F901F901895882319F085B18062BC
:1000B00002C085B18F7D85B9089580917A008F77D0
:1000C00080937A0080917B00806480937B00809194
:1000D0007E00836080937E0080B7806480BF80B79D
:1000E000846080BF80B7826080BF80916F00806233
:1000F00080936F008091810080688093810080915F
:10010000810081608093810080917C00887F809352
:100110007C00259A789453985B9A8091690084605A
:1001200080936900E99A83B7817F83BF80E00E9452
:10013000540080917C008E7F80937C0080918100B0
:10014000806480938100B59A83B7816083BF88956E
:0C01500083B78E7F83BFEDCFF894FFCF04
:00000001FF
