:100000000C9434000C9446000C9448000C94460068
:100010000C9446000C9446000C9446000C94460048
:100020000C9446000C9446000C9452000C9446002C
:100030000C9446000C9446000C9446000C94460028
:100040000C9446000C9446000C9446000C94460018
:100050000C9446000C9446000C9446000C94460008
:100060000C9446000C94460011241FBECFEFD8E03C
:10007000DEBFCDBF11E0A0E0B1E001C01D92A23013
:10008000B107E1F70E94BD000C942C010C94000014
:100090001F920F920FB60F9211240F900FBE0F9068
:1000A0001F9018951F920F920FB60F9211248F93E5
:1000B0009F9386E890E090930101809300019F91C7
:1000C0008F910F900FBE0F901F901895FC018285A5
:1000D000813081F030F08230B9F480917C008E7FE5
:1000E0000CC080917C00816080937C0080918100B5
:1000F000806408C080917C00816080937C00809146
:1001000081008F7B80938100B59A0895FC018285E0
:100110008130C9F080F0823021F580918600909185
:1001200087009583848322813381821B930B97837D
:100130008683128616C080918600909187009183F5
:10014000808381E00DC08091860090918700938329
:10015000828320813181821B930B9187808782E08B
:100160008287CF010C946600882319F085B18062E4
:1001700002C085B18F7D85B90895CF93DF93CDB748
:10018000DEB72B970FB6F894DEBF0FBECDBF8E0142
:100190000F5F1F4F8BE0F80111928A95E9F780916C
:1001A0007A008F7780937A0080917B0080648093BF
:1001B0007B0080917E00836080937E0080B78064A6
:1001C00080BF80B7846080BF80B7826080BF80912D
:1001D0006F00806280936F008091810080688093BF
:1001E00081008091810081608093810080917C00FA
:1001F000887F80937C00259A789453985B9A8091AD
:100200006900846080936900E99A83B7817F83BF26
:1002100080E00E94B400C8010E94660083B781603C
:1002200083BF889583B78E7F83BFE0910001F091F3
:100230000101309731F0C801099510920101109227
:1002400000018F819885893C9D4710F081E001C0B5
:0C02500080E00E94B400E2CFF894FFCFE1
:00000001FF
