:100000000C9434000C9451000C9453000C94510047
:100010000C9451000C9451000C9451000C9451001C
:100020000C9451000C9451000C945D000C94510000
:100030000C9451000C9451000C9451000C945100FC
:100040000C9451000C9451000C9451000C945100EC
:100050000C9451000C9451000C9451000C945100DC
:100060000C9451000C94510011241FBECFEFD8E026
:10007000DEBFCDBF11E0A0E0B1E0E8EEF3E002C0EA
:1000800005900D92A830B107D9F711E0A8E0B1E0D2
:1000900001C01D92AA30B107E1F70E9422010C9421
:1000A000F2010C9400001F920F920FB60F921124D0
:1000B0000F900FBE0F901F9018951F920F920FB6C2
:1000C0000F9211248F939F9381E990E090930901FF
:1000D000809308019F918F910F900FBE0F901F90FA
:1000E0001895FC018285813081F030F08230B9F4BE
:1000F00080917C008E7F0CC080917C008160809319
:100100007C0080918100806408C080917C008160C7
:1001100080937C00809181008F7B80938100B59AD1
:100120000895FC0182858130C9F080F0823021F58C
:10013000809186009091870095838483228133810A
:10014000821B930B97838683128616C0809186004C
:10015000909187009183808381E00DC0809186001B
:10016000909187009383828320813181821B930B3E
:100170009187808782E08287CF010C947100882369
:1001800019F085B1806202C085B18F7D85B908956F
:100190008F929F92AF92BF92CF92DF92EF92FF9297
:1001A0000F931F93CF93DF93FC017B012281338157
:1001B0002617370718F48681978137C0008111818F
:1001C000C481D5816017710710F4CE012EC0201BA9
:1001D000310BA4E6B0E00E94A201268137812C1BDE
:1001E0003D0B40E050E00E94B10149015A019701E6
:1001F000A4E6B0E00E94A201A50194010E94B10111
:1002000069017A019801A4E6B0E00E94A201A5016B
:1002100094010E94B101DA01C9018C1B9D0BA10957
:10022000B1099601281B390BC901DF91CF911F91AC
:100230000F91FF90EF90DF90CF90BF90AF909F9085
:100240008F900895CF93DF93CDB7DEB763970FB646
:10025000F894DEBF0FBECDBF8E010F5F1F4F8BE046
:10026000F80111928A95E9F788E0E0E0F1E0DE011B
:100270001C9601900D928A95E1F780917A008F7714
:1002800080937A0080917B00806480937B008091D2
:100290007E00836080937E0080B7806480BF80B7DB
:1002A000846080BF80B7826080BF80916F00806271
:1002B00080936F008091810080688093810080919D
:1002C000810081608093810080917C00887F809391
:1002D0007C00259A789453985B9A80916900846099
:1002E00080936900E99A83B7817F83BF80E00E9491
:1002F000BF00C8010E94710083B7816083BF8895E9
:1003000083B78E7F83BFE0910801F0910901309798
:1003100031F0C801099510920901109208016F810E
:100320007885CE010C960E94C800A0E0B0E08F3F17
:100330009105A105B10514F081E001C080E00E94A3
:10034000BF00DACFA29FB001B39FC001A39F700D81
:10035000811D1124911DB29F700D811D1124911DCD
:100360000895052E97FB1EF400940E94C80157FDC6
:1003700007D00E94D00107FC03D04EF40C94C801B2
:1003800050954095309521953F4F4F4F5F4F0895C1
:1003900090958095709561957F4F8F4F9F4F0895F1
:1003A000A1E21A2EAA1BBB1BFD010DC0AA1FBB1F79
:1003B000EE1FFF1FA217B307E407F50720F0A21BEB
:1003C000B30BE40BF50B661F771F881F991F1A9458
:1003D00069F760957095809590959B01AC01BD0182
:0803E000CF010895F894FFCF4E
:0803E8007A3A8A6B0100FF0064
:00000001FF
