:100000000C9434000C943E000C943E000C943E0082
:100010000C943E000C943E000C943E000C943E0068
:100020000C943E000C943E000C943E000C943E0058
:100030000C943E000C943E000C943E000C943E0048
:100040000C943E000C943E000C943E000C943E0038
:100050000C943E000C943E000C943E000C943E0028
:100060000C943E000C943E0011241FBECFEFD8E04C
:10007000DEBFCDBF0E9449000C9450000C940000DC
:10008000882319F085B1806202C085B18F7D85B962
:100090000895259A80E00E94400080E090E0089555
:0400A000F894FFCF02
:00000001FF
