:100000000C9434000C9446000C9446000C9446006A
:100010000C9446000C9446000C945D000C94460031
:100020000C9446000C9446000C9448000C94460036
:100030000C9446000C9446000C9446000C94460028
:100040000C9446000C9446000C9446000C94460018
:100050000C9446000C9446000C9446000C94460008
:100060000C9446000C94460011241FBECFEFD8E03C
:10007000DEBFCDBF11E0A0E0B1E001C01D92A23013
:10008000B107E1F70E94CB010C94EB020C94000045
:100090001F920F920FB60F9211248F939F93A895E2
:1000A00081E990E090930101809300019F918F91ED
:1000B0000F900FBE0F901F9018951F920F920FB6C2
:1000C0000F9211248F939F938FEB90E090930101F7
:1000D000809300019F918F910F900FBE0F901F9002
:1000E0001895FC018685813081F030F08230B9F4BA
:1000F00080917C008E7F0CC080917C008160809319
:100100007C0080918100806408C080917C008160C7
:1001100080937C00809181008F7B80938100B59AD1
:100120000895FC0186858130C9F080F0823021F588
:10013000809186009091870095838483228133810A
:10014000821B930B97838683168616C08091860048
:10015000909187009183808381E00DC0809186001B
:10016000909187009383828320813181821B930B3E
:100170009187808782E08687CF010C947100FC0113
:1001800011861086178216821182108213821282C3
:100190001582148216860C947100882319F085B19B
:1001A000806202C085B18F7D85B908958F929F923C
:1001B000AF92BF92CF92DF92EF92FF920F931F9375
:1001C000CF93DF93FB015A01DC011C966D917C916A
:1001D0001D976417750718F4848595855FC0DC0149
:1001E0001A96CD91DC911B974C175D0718F4828508
:1001F000938554C04115510509F44EC06C1B7D0B0D
:1002000002851385CB01A0E0B0E0BC01CD0127E061
:10021000660F771F881F991F2A95D1F7248535858A
:10022000201B310B442737FD4095542F0E94960226
:1002300069017A01C501A0E0B0E0BC01CD01E7E0B1
:10024000660F771F881F991FEA95D1F70E949602C3
:1002500049015A01CE01A0E0B0E0BC01CD01F7E0B8
:10026000660F771F881F991FFA95D1F7A70196018E
:100270000E949602C801AA2797FDA095BA2F79017E
:100280008A01E81AF90A0A0B1B0BD801C70184017D
:10029000081B190BC80102C080E090E0DF91CF91EC
:1002A0001F910F91FF90EF90DF90CF90BF90AF9094
:1002B0009F908F900895CF93DF93FC01C081D181EF
:1002C000828193819695982F8827979587956FEFD0
:1002D00070E00E948202C69FC001C79F900DD69F0A
:1002E000900D112497FF02C081589F4F80786FEFC7
:1002F00070E00E94820284819581689F9001699FCD
:10030000300D789F300D112437FF02C021583F4F28
:10031000220F232F221F330BCE01821B930B893F09
:1003200091051CF089EF90E006C088304FEF9407EC
:1003300014F487E09FEF918780872C0F3D1F293FA2
:1003400031051CF089EF90E006C028308FEF3807A8
:100350002CF487E09FEF9783868302C03783268340
:10036000DF91CF910895FC012085318537FD03C0D1
:1003700027BD5B9A03C0219527BD5B98FC01868150
:100380009781181619061CF488BD5C9A089581950A
:1003900088BD5C980895CF93DF93CDB7DEB76E9795
:1003A0000FB6F894DEBF0FBECDBF8FE08E01005FA9
:1003B0001F4FF801282F11922A95E9F72AE73AE30F
:1003C0003B8F2A8F2AE83BE63D8F2C8FFE0131962A
:1003D0007F0111928A95E9F781E09FEF9C878B87D7
:1003E0008FEF90E09E878D8785E08F87F8948091CE
:1003F0007A008F7780937A0080917B00806480936D
:100400007B0080917E00836080937E0080B7806453
:1004100080BF80B7846080BF80B7826080BF8091DA
:100420006F00806280936F0080918100806880936C
:1004300081008091810081608093810080917C00A7
:10044000887F80937C00259A8AB180668AB98AB1B8
:1004500088618AB9F8948091600088618093600017
:1004600084E480936000789484B5816084BD84B511
:10047000806884BD84B5806284BD85B5826085BD99
:1004800083B7817F83BF80E00E94CD00C8010E94B6
:10049000710084E6C82ED12CC7010E94B30183B736
:1004A000816083BF889583B78E7F83BFE091000111
:1004B000F0910101309731F0C801099510920101C6
:1004C000109200014E895F89B701C8010E94D600D1
:1004D0009C838B83488D598DB701C8010E94D6003B
:1004E0009A838983DE82CD82C7010E945B01898560
:1004F0009A85893C910514F481E001C080E00E9456
:10050000CD00CACF97FB072E16F4009407D077FDD5
:1005100009D00E94B50207FC05D03EF49095819564
:100520009F4F0895709561957F4F0895052E97FB15
:100530001EF400940E94AD0257FD07D00E94C9022C
:1005400007FC03D04EF40C94AD02509540953095C5
:1005500021953F4F4F4F5F4F08959095809570952F
:1005600061957F4F8F4F9F4F0895AA1BBB1B51E191
:1005700007C0AA1FBB1FA617B70710F0A61BB70B13
:10058000881F991F5A95A9F780959095BC01CD01B8
:100590000895A1E21A2EAA1BBB1BFD010DC0AA1FC4
:1005A000BB1FEE1FFF1FA217B307E407F50720F0DC
:1005B000A21BB30BE40BF50B661F771F881F991F57
:1005C0001A9469F760957095809590959B01AC01A0
:0A05D000BD01CF010895F894FFCF9C
:00000001FF
