:100000000C9434000C9446000C9446000C9446006A
:100010000C9446000C9446000C9446000C94460048
:100020000C9446000C9446000C9446000C94460038
:100030000C9446000C9446000C9446000C94460028
:100040000C9446000C9446000C9446000C94460018
:100050000C9446000C9446000C9446000C94460008
:100060000C9446000C94460011241FBECFEFD8E03C
:10007000DEBFCDBF11E0A0E0B1E001C01D92A13014
:10008000B107E1F70E9451000C94C3000C940000EA
:10009000882319F085B1806202C085B18F7D85B952
:1000A000089580917B00806480937B0080917A002A
:1000B0008F7780937A0080917E00836080937E00AA
:1000C00080B7806480BF80B7846080BF80B788605D
:1000D00080BF80B78E7F80BF80B7826080BF8091F5
:1000E0006F00806280936F008091810080688093B0
:1000F0008100809181008160809381008091640003
:100100008E7F80936400259A53985B9A8091690052
:10011000846080936900E99A789483B7817F83BF74
:1001200080E00E94480080917C00887F80937C0062
:1001300083B7816083BF83B7816083BF889583B7AE
:100140008E7F83BF83B78E7F83BF81E00E9448008C
:1001500080910001882339F081E00E94480080915D
:1001600081008F7B06C081E00E9448008091810061
:1001700080648093810081E090910001911180E082
:0A01800080930001D5CFF894FFCF63
:00000001FF
