:100000000C9434000C9446000C9446000C9446006A
:100010000C9446000C9446000C945C000C94460032
:100020000C9446000C9446000C9448000C94460036
:100030000C9446000C9446000C9446000C94460028
:100040000C9446000C9446000C9446000C94460018
:100050000C9446000C9446000C9446000C94460008
:100060000C9446000C94460011241FBECFEFD8E03C
:10007000DEBFCDBF11E0A0E0B1E001C01D92A23013
:10008000B107E1F70E94FB010C941F030C940000E0
:100090001F920F920FB60F9211248F939F9380E9B6
:1000A00090E090930101809300019F918F910F90B8
:1000B0000FBE0F901F9018951F920F920FB60F92C0
:1000C00011248F939F9380EC90E090930101809393
:1000D00000019F918F910F900FBE0F901F90189568
:1000E000FC018685813081F030F08230B9F4809156
:1000F0007C008E7F0CC080917C00816080937C00AE
:1001000080918100806408C080917C008160809330
:100110007C00809181008F7B80938100B59A089547
:10012000FC0186858130D9F090F0823031F58091E4
:100130008600909187009583848322813381821B7E
:10014000930B9783868316861786A89516C0809191
:100150008600909187009183808381E00DC080911B
:100160008600909187009383828320813181821B56
:10017000930B9187808782E08687CF010C94700073
:1001800021E0FC01278716860C947000882319F063
:1001900085B1806202C085B18F7D85B908958823BD
:1001A00019F085B1816002C085B18E7F85B908954F
:1001B000882319F08BB1886002C08BB1877F8BB91F
:1001C0000895882319F08BB1806102C08BB18F7EB6
:1001D0008BB908954F925F926F927F928F929F9208
:1001E000AF92BF92CF92DF92EF92FF920F931F9345
:1001F000CF93DF93FC016B018A018785813009F47D
:1002000065C0648575856417750720F4F6018485DB
:1002100095855EC0C285D385F601E284F3844C17D0
:100220005D0710F4C70154C06C1B7D0BCB01A0E02F
:10023000B0E0BC01CD0127E0660F771F881F991F32
:100240002A95D1F7F601248535852E193F094427D3
:1002500037FD4095542F0E94CA0229013A01C80176
:10026000A0E0B0E0BC01CD01E7E0660F771F881F7A
:10027000991FEA95D1F70E94CA0249015A01CE019D
:10028000A0E0B0E0BC01CD01F7E0660F771F881F4A
:10029000991FFA95D1F7A30192010E94CA02C701E2
:1002A000AA2797FDA095BA2F79018A01E81AF90AC1
:1002B0000A0B1B0B8E189F08F6018685992787FD70
:1002C00090958815990510F4C40102C080E090E073
:1002D000DF91CF911F910F91FF90EF90DF90CF9022
:1002E000BF90AF909F908F907F906F905F904F9056
:1002F0000895CF93DF93FC01C081D18182819381E6
:100300009695982F8827979587956FEF70E00E94B4
:10031000B602C69FC001C79F900DD69F900D1124B5
:1003200097FF02C081589F4F80786FEF70E00E9466
:10033000B60284819581689F9001699F300D789FF6
:10034000300D112437FF02C021583F4F220F232FB9
:10035000221F330BCE01821B930B893F91051CF0AA
:1003600089EF90E006C088304FEF940714F487E0DF
:100370009FEF918780872C0F3D1F293F31051CF08F
:1003800089EF90E006C028308FEF38072CF487E023
:100390009FEF9783868302C037832683DF91CF91B7
:1003A0000895CF93DF93EC012885398537FD03C08D
:1003B00027BD81E003C0219527BD80E00E94D800C1
:1003C0002E813F8137FD03C028BD81E003C0219508
:1003D00028BD80E00E94E10088859985892B21F461
:1003E0008E819F81892B11F081E001C080E0DF9137
:1003F000CF910C94CF00CF93DF93CDB7DEB76F973B
:100400000FB6F894DEBF0FBECDBF8E010F5F1F4F3A
:1004100080E1F80111928A95E9F78AE79AE39C87CF
:100420008B878AE89BE69E878D8781E0888B7E019B
:10043000F1E1EF0EF11C8FE0F70111928A95E9F7D7
:1004400081E09FEF9C8F8B8F8FEF90E09E8F8D8F41
:100450008AE08F8FF89480917A008F7780937A006A
:1004600080917B00806480937B0080917E0083601C
:1004700080937E0080B7806480BF80B7846080BF37
:1004800080B7826080BF80916F00806280936F0030
:1004900080918100806880938100809181008160DB
:1004A0008093810080917C00887F80937C00259AD6
:1004B000209A8AB180668AB98AB188618AB9F8942B
:1004C0008091600088618093600084E48093600084
:1004D000789484B5816084BD84B5806884BD84B51A
:1004E000806284BD85B5826085BD83B7817F83BF0F
:1004F00080E00E94C600C8010E94700084E6C82EF9
:10050000D12CC7010E94D10183B7816083BF889538
:1005100083B78E7F83BFE0910001F0910101309796
:1005200031F0C801099510920101109200014F812C
:100530005885B701C8010E94EA009C8B8B8B4985C6
:100540005A85B701C8010E94EA009A8B898BDE8A1E
:10055000CD8AC7010E947901898D9A8D892B11F46A
:1005600081E001C080E00E94C600CBCF97FB072E40
:1005700016F4009407D077FD09D00E94E90207FC29
:1005800005D03EF4909581959F4F089570956195A3
:100590007F4F0895052E97FB1EF400940E94E10200
:1005A00057FD07D00E94FD0207FC03D04EF40C94C7
:1005B000E10250954095309521953F4F4F4F5F4F49
:1005C000089590958095709561957F4F8F4F9F4FBF
:1005D0000895AA1BBB1B51E107C0AA1FBB1FA6178A
:1005E000B70710F0A61BB70B881F991F5A95A9F7DC
:1005F00080959095BC01CD010895A1E21A2EAA1B09
:10060000BB1BFD010DC0AA1FBB1FEE1FFF1FA217C2
:10061000B307E407F50720F0A21BB30BE40BF50BBF
:10062000661F771F881F991F1A9469F76095709548
:10063000809590959B01AC01BD01CF010895F89480
:02064000FFCFEA
:00000001FF
