:100000000C9434000C9446000C9448000C94460068
:100010000C9446000C9446000C9446000C94460048
:100020000C9446000C9446000C9452000C9446002C
:100030000C9446000C9446000C9446000C94460028
:100040000C9446000C9446000C9446000C94460018
:100050000C9446000C9446000C9446000C94460008
:100060000C9446000C94460011241FBECFEFD8E03C
:10007000DEBFCDBF11E0A0E0B1E001C01D92A23013
:10008000B107E1F70E94BB000C9421010C94000021
:100090001F920F920FB60F9211240F900FBE0F9068
:1000A0001F9018951F920F920FB60F9211248F93E5
:1000B0009F9384E890E090930101809300019F91C9
:1000C0008F910F900FBE0F901F901895813081F087
:1000D00030F08230B9F480917C0081600CC0809156
:1000E0007C008E7F80937C0080918100806408C0BA
:1000F00080917C008E7F80937C00809181008F7B3B
:1001000080938100B59A0895FC0182858130C9F001
:1001100080F0823021F58091860090918700958350
:10012000848322813381821B930B9187808712867F
:1001300016C080918600909187009183808381E032
:100140000DC08091860090918700938382832081E7
:100150003181821B930B9783868382E0828782851D
:100160000C946600882319F085B1806202C085B1C5
:100170008F7D85B90895CF93DF93CDB7DEB72B97E9
:100180000FB6F894DEBF0FBECDBF8E010F5F1F4FBD
:100190008BE0F80111928A95E9F780917A008F77C8
:1001A00080937A0080917B00806480937B008091B3
:1001B0007E00836080937E0080B7806480BF80B7BC
:1001C000846080BF80B7826080BF80916F00806252
:1001D00080936F008091810080688093810080917E
:1001E000810081608093810080917C00887F809372
:1001F0007C00259A789453985B9A9091690094605A
:1002000090936900E99A93B7917F93BF80E00E9431
:10021000B2001B868B850E94660093B7916093BFE6
:10022000889593B79E7F93BFE0910001F091010103
:10023000309781F3C80109951092010110920001D5
:06024000E9CFF894FFCFA6
:00000001FF
