:100000000EC01DC02DC01BC01DC019C018C017C018
:1000100016C015C014C013C012C011C010C01124E6
:100020001FBECFE5D2E0DEBFCDBF20E0A0E6B0E04E
:1000300001C01D92A236B207E1F741D076C0E0CFF1
:10004000089508951F920F920FB60F9211241092E7
:100050006100109260000F900FBE0F901F901895D6
:100060001F920F920FB60F9211248F939F9380E2ED
:1000700090E090936100809360009F918F910F902A
:100080000FBE0F901F901895882319F088B38160D8
:1000900002C088B38E7F88BB0895882319F088B387
:1000A000826002C088B38D7F88BB0895882319F0D1
:1000B00088B3846002C088B38B7F88BB0895CF93D8
:1000C000DF931F92CDB7DEB7C39AC49AAB9AAC9AAE
:1000D0008BB780628BBFB89AB99ABA9A80E0D4DFA6
:1000E00080E0DBDF80E0E2DF8FE080BF89B7846003
:1000F00089BF789485B78F7E85BF85B7877F85BF99
:1001000085B7806285BF889585B78F7D85BFE09173
:100110006000F0916100309799F3CE010196099546
:0E0120001092610010926000EBCFF894FFCFB8
:00000001FF
