:100000000EC01DC01DC01BC01AC019C018C017C02B
:1000100016C015C014C013C012C011C010C01124E6
:100020001FBECFE5D2E0DEBFCDBF20E0A0E6B0E04E
:1000300001C01D92A236B207E1F7CBD0F4C0E0CFE9
:100040001F920F920FB60F9211242F938F939F93AD
:10005000EF93FF9390E08FE1890F8F3368F4B399AA
:1000600002C0915002C0B3999F5FEFECF7E0319767
:10007000F1F700C00000EFCF80E02FE1280F2F3311
:1000800068F4B49902C0815002C0B4998F5FEFEC5C
:10009000F7E03197F1F700C00000EFCF903E19F480
:1000A0008EE690E004C0803E31F48DE890E09093BD
:1000B000610080936000FF91EF919F918F912F914C
:1000C0000F900FBE0F901F901895882319F088B3DA
:1000D000816002C088B38E7F88BB089581E0F5DF20
:1000E000B39907C08FE19EE40197F1F700C00000CB
:1000F000F7CF80E0EACF882319F088B3826002C08E
:1001000088B38D7F88BB0895882319F088B38460F5
:1001100002C088B38B7F88BB0895CF9380E0B499E9
:1001200051C0811104C081E0D0DF81E0F8CF81307F
:1001300021F5C3E081E0E8DF2FEF80E792E0215076
:1001400080409040E1F700C0000080E0DDDF2FEF4D
:1001500080E792E0215080409040E1F700C000002D
:10016000C15041F72FEF89E698E12150804090403F
:10017000E1F700C0000082E0D2CF823069F481E074
:10018000BADF2FEF84E39CE0215080409040E1F7FC
:1001900000C0000083E0C3CF833069F481E0B4DFA6
:1001A0002FE78AE196E0215080409040E1F700C0BF
:1001B000000084E0B4CF843009F0B1CF80E0A4DF48
:1001C00085E0ADCF80E0A0DF80E095DF80E0CF91DB
:1001D0007CCFAB9AAC9A8BB780628BBFC39AC49A20
:1001E000B89AB99ABA9A789485B78F7E85BF85B741
:1001F000877F85BF80E088DF80E07DDF80E065DF8E
:1002000085B7806285BF889585B78F7D85BFE09172
:100210006000F0916100309769F3099510926100D8
:0A02200010926000E7CFF894FFCFC2
:00000001FF
